{
  "address": "0xbed049bE1C64FD5796576C62D938bCC0A12ceE17",
  "abi": [
    {
      "inputs": [
        {
          "internalType": "address",
          "name": "_owner",
          "type": "address"
        },
        {
          "internalType": "contract IPrizePool",
          "name": "_prizePool",
          "type": "address"
        }
      ],
      "stateMutability": "nonpayable",
      "type": "constructor"
    },
    {
      "anonymous": false,
      "inputs": [
        {
          "indexed": true,
          "internalType": "address",
          "name": "owner",
          "type": "address"
        },
        {
          "indexed": false,
          "internalType": "contract IPrizePool",
          "name": "prizePool",
          "type": "address"
        }
      ],
      "name": "Deployed",
      "type": "event"
    },
    {
      "anonymous": false,
      "inputs": [
        {
          "indexed": false,
          "internalType": "uint256",
          "name": "totalPrizeCaptured",
          "type": "uint256"
        }
      ],
      "name": "Distributed",
      "type": "event"
    },
    {
      "anonymous": false,
      "inputs": [
        {
          "indexed": true,
          "internalType": "address",
          "name": "pendingOwner",
          "type": "address"
        }
      ],
      "name": "OwnershipOffered",
      "type": "event"
    },
    {
      "anonymous": false,
      "inputs": [
        {
          "indexed": true,
          "internalType": "address",
          "name": "previousOwner",
          "type": "address"
        },
        {
          "indexed": true,
          "internalType": "address",
          "name": "newOwner",
          "type": "address"
        }
      ],
      "name": "OwnershipTransferred",
      "type": "event"
    },
    {
      "anonymous": false,
      "inputs": [
        {
          "indexed": true,
          "internalType": "address",
          "name": "user",
          "type": "address"
        },
        {
          "indexed": false,
          "internalType": "uint256",
          "name": "prizeAwarded",
          "type": "uint256"
        },
        {
          "indexed": true,
          "internalType": "contract IControlledToken",
          "name": "token",
          "type": "address"
        }
      ],
      "name": "PrizeSplitAwarded",
      "type": "event"
    },
    {
      "anonymous": false,
      "inputs": [
        {
          "indexed": true,
          "internalType": "uint256",
          "name": "target",
          "type": "uint256"
        }
      ],
      "name": "PrizeSplitRemoved",
      "type": "event"
    },
    {
      "anonymous": false,
      "inputs": [
        {
          "indexed": true,
          "internalType": "address",
          "name": "target",
          "type": "address"
        },
        {
          "indexed": false,
          "internalType": "uint16",
          "name": "percentage",
          "type": "uint16"
        },
        {
          "indexed": false,
          "internalType": "uint256",
          "name": "index",
          "type": "uint256"
        }
      ],
      "name": "PrizeSplitSet",
      "type": "event"
    },
    {
      "inputs": [],
      "name": "ONE_AS_FIXED_POINT_3",
      "outputs": [
        {
          "internalType": "uint16",
          "name": "",
          "type": "uint16"
        }
      ],
      "stateMutability": "view",
      "type": "function"
    },
    {
      "inputs": [],
      "name": "claimOwnership",
      "outputs": [],
      "stateMutability": "nonpayable",
      "type": "function"
    },
    {
      "inputs": [],
      "name": "distribute",
      "outputs": [
        {
          "internalType": "uint256",
          "name": "",
          "type": "uint256"
        }
      ],
      "stateMutability": "nonpayable",
      "type": "function"
    },
    {
      "inputs": [],
      "name": "getPrizePool",
      "outputs": [
        {
          "internalType": "contract IPrizePool",
          "name": "",
          "type": "address"
        }
      ],
      "stateMutability": "view",
      "type": "function"
    },
    {
      "inputs": [
        {
          "internalType": "uint256",
          "name": "_prizeSplitIndex",
          "type": "uint256"
        }
      ],
      "name": "getPrizeSplit",
      "outputs": [
        {
          "components": [
            {
              "internalType": "address",
              "name": "target",
              "type": "address"
            },
            {
              "internalType": "uint16",
              "name": "percentage",
              "type": "uint16"
            }
          ],
          "internalType": "struct IPrizeSplit.PrizeSplitConfig",
          "name": "",
          "type": "tuple"
        }
      ],
      "stateMutability": "view",
      "type": "function"
    },
    {
      "inputs": [],
      "name": "getPrizeSplits",
      "outputs": [
        {
          "components": [
            {
              "internalType": "address",
              "name": "target",
              "type": "address"
            },
            {
              "internalType": "uint16",
              "name": "percentage",
              "type": "uint16"
            }
          ],
          "internalType": "struct IPrizeSplit.PrizeSplitConfig[]",
          "name": "",
          "type": "tuple[]"
        }
      ],
      "stateMutability": "view",
      "type": "function"
    },
    {
      "inputs": [],
      "name": "owner",
      "outputs": [
        {
          "internalType": "address",
          "name": "",
          "type": "address"
        }
      ],
      "stateMutability": "view",
      "type": "function"
    },
    {
      "inputs": [],
      "name": "pendingOwner",
      "outputs": [
        {
          "internalType": "address",
          "name": "",
          "type": "address"
        }
      ],
      "stateMutability": "view",
      "type": "function"
    },
    {
      "inputs": [],
      "name": "renounceOwnership",
      "outputs": [],
      "stateMutability": "nonpayable",
      "type": "function"
    },
    {
      "inputs": [
        {
          "components": [
            {
              "internalType": "address",
              "name": "target",
              "type": "address"
            },
            {
              "internalType": "uint16",
              "name": "percentage",
              "type": "uint16"
            }
          ],
          "internalType": "struct IPrizeSplit.PrizeSplitConfig",
          "name": "_prizeSplit",
          "type": "tuple"
        },
        {
          "internalType": "uint8",
          "name": "_prizeSplitIndex",
          "type": "uint8"
        }
      ],
      "name": "setPrizeSplit",
      "outputs": [],
      "stateMutability": "nonpayable",
      "type": "function"
    },
    {
      "inputs": [
        {
          "components": [
            {
              "internalType": "address",
              "name": "target",
              "type": "address"
            },
            {
              "internalType": "uint16",
              "name": "percentage",
              "type": "uint16"
            }
          ],
          "internalType": "struct IPrizeSplit.PrizeSplitConfig[]",
          "name": "_newPrizeSplits",
          "type": "tuple[]"
        }
      ],
      "name": "setPrizeSplits",
      "outputs": [],
      "stateMutability": "nonpayable",
      "type": "function"
    },
    {
      "inputs": [
        {
          "internalType": "address",
          "name": "_newOwner",
          "type": "address"
        }
      ],
      "name": "transferOwnership",
      "outputs": [],
      "stateMutability": "nonpayable",
      "type": "function"
    }
  ],
  "transactionHash": "0x0298f172088e95b8cbe92cf96c84fb23c23414356979c52c8806c1230c6b2b64",
  "args": [
    "0xb4b41EC98baD07E90813974c23f4cd0ab987caF8",
    "0xbD6e13D5Da0748A31270E38829CB1732D7E391CE"
  ],
  "solcInputHash": "de94331331f4ed0d15f6d13c78601263",
  "bytecode": "0x60a06040523480156200001157600080fd5b506040516200154e3803806200154e83398101604081905262000034916200015d565b8162000040816200010d565b506001600160a01b038116620000b35760405162461bcd60e51b815260206004820152602e60248201527f5072697a6553706c697453747261746567792f7072697a652d706f6f6c2d6e6f60448201526d742d7a65726f2d6164647265737360901b606482015260840160405180910390fd5b606081901b6001600160601b0319166080526040516001600160a01b0380831682528316907f09e48df7857bd0c1e0d31bb8a85d42cf1874817895f171c917f6ee2cea73ec209060200160405180910390a25050620001b5565b600080546001600160a01b038381166001600160a01b0319831681178455604051919092169283917f8be0079c531659141344cd1fd0a4f28419497f9722a3daafe3b4186f6b6457e09190a35050565b600080604083850312156200017157600080fd5b82516200017e816200019c565b602084015190925062000191816200019c565b809150509250929050565b6001600160a01b0381168114620001b257600080fd5b50565b60805160601c611365620001e96000396000818161013401528181610b0d01528181610eab0152610f7c01526113656000f3fe608060405234801561001057600080fd5b50600436106100d45760003560e01c80638da5cb5b11610081578063e30c39781161005b578063e30c3978146101cd578063e4fc6b6d146101de578063f2fde38b146101f457600080fd5b80638da5cb5b1461016c578063cf1e3b591461017d578063cf713d6e1461019257600080fd5b80634e71e0c8116100b25780634e71e0c814610122578063715018a61461012a578063884bf67c1461013257600080fd5b8063056ea84f146100d9578063063a2298146100ee57806345a9f18714610101575b600080fd5b6100ec6100e7366004611176565b610207565b005b6100ec6100fc3660046110c8565b6104b6565b61010a6103e881565b60405161ffff90911681526020015b60405180910390f35b6100ec61092b565b6100ec6109b9565b7f00000000000000000000000000000000000000000000000000000000000000005b6040516001600160a01b039091168152602001610119565b6000546001600160a01b0316610154565b610185610a2e565b60405161011991906111e6565b6101a56101a03660046111b4565b610aa5565b6040805182516001600160a01b0316815260209283015161ffff169281019290925201610119565b6001546001600160a01b0316610154565b6101e6610b08565b604051908152602001610119565b6100ec6102023660046110a4565b610bfc565b3361021a6000546001600160a01b031690565b6001600160a01b0316146102755760405162461bcd60e51b815260206004820152601860248201527f4f776e61626c652f63616c6c65722d6e6f742d6f776e6572000000000000000060448201526064015b60405180910390fd5b60025460ff8216106102ef5760405162461bcd60e51b815260206004820152602160248201527f5072697a6553706c69742f6e6f6e6578697374656e742d7072697a6573706c6960448201527f7400000000000000000000000000000000000000000000000000000000000000606482015260840161026c565b81516001600160a01b031661036b5760405162461bcd60e51b8152602060048201526024808201527f5072697a6553706c69742f696e76616c69642d7072697a6573706c69742d746160448201527f7267657400000000000000000000000000000000000000000000000000000000606482015260840161026c565b8160028260ff168154811061038257610382611301565b60009182526020808320845192018054949091015161ffff16600160a01b0275ffffffffffffffffffffffffffffffffffffffffffff199094166001600160a01b0390921691909117929092179091556103da610d38565b90506103e88111156104545760405162461bcd60e51b815260206004820152602e60248201527f5072697a6553706c69742f696e76616c69642d7072697a6573706c69742d706560448201527f7263656e746167652d746f74616c000000000000000000000000000000000000606482015260840161026c565b82600001516001600160a01b03167f0865d776fd684728838c688d6a6a82888f61c57a4032c8c320c24949317b9a348460200151846040516104a992919061ffff92909216825260ff16602082015260400190565b60405180910390a2505050565b336104c96000546001600160a01b031690565b6001600160a01b03161461051f5760405162461bcd60e51b815260206004820152601860248201527f4f776e61626c652f63616c6c65722d6e6f742d6f776e65720000000000000000604482015260640161026c565b8060ff8111156105975760405162461bcd60e51b815260206004820152602560248201527f5072697a6553706c69742f696e76616c69642d7072697a6573706c6974732d6c60448201527f656e677468000000000000000000000000000000000000000000000000000000606482015260840161026c565b60005b8181101561081b5760008484838181106105b6576105b6611301565b9050604002018036038101906105cc919061115a565b80519091506001600160a01b031661064b5760405162461bcd60e51b8152602060048201526024808201527f5072697a6553706c69742f696e76616c69642d7072697a6573706c69742d746160448201527f7267657400000000000000000000000000000000000000000000000000000000606482015260840161026c565b60025482106106d0576002805460018101825560009190915281517f405787fa12a823e0f2b7631cc41b3ba8828b3321ca811111fa75cd3aa3bb5ace9091018054602084015161ffff16600160a01b0275ffffffffffffffffffffffffffffffffffffffffffff199091166001600160a01b03909316929092179190911790556107b6565b6000600283815481106106e5576106e5611301565b6000918252602091829020604080518082019091529101546001600160a01b03808216808452600160a01b90920461ffff1693830193909352845191935091161415806107425750806020015161ffff16826020015161ffff1614155b156107ad57816002848154811061075b5761075b611301565b6000918252602091829020835191018054939092015161ffff16600160a01b0275ffffffffffffffffffffffffffffffffffffffffffff199093166001600160a01b03909116179190911790556107b4565b5050610809565b505b80516020808301516040805161ffff90921682529181018590526001600160a01b03909216917f0865d776fd684728838c688d6a6a82888f61c57a4032c8c320c24949317b9a34910160405180910390a2505b80610813816112ba565b91505061059a565b505b6002548110156108a15760028054600019810191908061083f5761083f6112eb565b6000828152602081208201600019908101805475ffffffffffffffffffffffffffffffffffffffffffff1916905590910190915560405182917f99fa473fdf53414bcd014cf6e7509fc58c68f7b86174767faa6ad5100cd5bae591a25061081d565b60006108ab610d38565b90506103e88111156109255760405162461bcd60e51b815260206004820152602e60248201527f5072697a6553706c69742f696e76616c69642d7072697a6573706c69742d706560448201527f7263656e746167652d746f74616c000000000000000000000000000000000000606482015260840161026c565b50505050565b6001546001600160a01b031633146109855760405162461bcd60e51b815260206004820152601f60248201527f4f776e61626c652f63616c6c65722d6e6f742d70656e64696e674f776e657200604482015260640161026c565b60015461099a906001600160a01b0316610d9a565b6001805473ffffffffffffffffffffffffffffffffffffffff19169055565b336109cc6000546001600160a01b031690565b6001600160a01b031614610a225760405162461bcd60e51b815260206004820152601860248201527f4f776e61626c652f63616c6c65722d6e6f742d6f776e65720000000000000000604482015260640161026c565b610a2c6000610d9a565b565b60606002805480602002602001604051908101604052809291908181526020016000905b82821015610a9c57600084815260209081902060408051808201909152908401546001600160a01b0381168252600160a01b900461ffff1681830152825260019092019101610a52565b50505050905090565b604080518082019091526000808252602082015260028281548110610acc57610acc611301565b6000918252602091829020604080518082019091529101546001600160a01b0381168252600160a01b900461ffff169181019190915292915050565b6000807f00000000000000000000000000000000000000000000000000000000000000006001600160a01b031663e6d8a94b6040518163ffffffff1660e01b8152600401602060405180830381600087803b158015610b6657600080fd5b505af1158015610b7a573d6000803e3d6000fd5b505050506040513d601f19601f82011682018060405250810190610b9e91906111cd565b905080610bad57600091505090565b6000610bb882610df7565b90507fddc9c30275a04c48091f24199f9c405765de34d979d6847f5b9798a57232d2e5610be582846112a3565b60405190815260200160405180910390a150919050565b33610c0f6000546001600160a01b031690565b6001600160a01b031614610c655760405162461bcd60e51b815260206004820152601860248201527f4f776e61626c652f63616c6c65722d6e6f742d6f776e65720000000000000000604482015260640161026c565b6001600160a01b038116610ce15760405162461bcd60e51b815260206004820152602560248201527f4f776e61626c652f70656e64696e674f776e65722d6e6f742d7a65726f2d616460448201527f6472657373000000000000000000000000000000000000000000000000000000606482015260840161026c565b6001805473ffffffffffffffffffffffffffffffffffffffff19166001600160a01b0383169081179091556040517f239a2ddded15777fa246aed5f7e1a9bc69a39d4eb4a397034d1d85766cca7d4c90600090a250565b6002546000908190815b81811015610d925760028181548110610d5d57610d5d611301565b600091825260209091200154610d7e90600160a01b900461ffff168461124a565b925080610d8a816112ba565b915050610d42565b509092915050565b600080546001600160a01b0383811673ffffffffffffffffffffffffffffffffffffffff19831681178455604051919092169283917f8be0079c531659141344cd1fd0a4f28419497f9722a3daafe3b4186f6b6457e09190a35050565b6002546000908290825b81811015610e9e57600060028281548110610e1e57610e1e611301565b60009182526020808320604080518082019091529201546001600160a01b0381168352600160a01b900461ffff169082018190529092506103e890610e639089611284565b610e6d9190611262565b9050610e7d826000015182610ea7565b610e8781866112a3565b945050508080610e96906112ba565b915050610e01565b50909392505050565b60007f00000000000000000000000000000000000000000000000000000000000000006001600160a01b031663c002c4d66040518163ffffffff1660e01b815260040160206040518083038186803b158015610f0257600080fd5b505afa158015610f16573d6000803e3d6000fd5b505050506040513d601f19601f82011682018060405250810190610f3a919061113d565b6040517f5d8a776e0000000000000000000000000000000000000000000000000000000081526001600160a01b038581166004830152602482018590529192507f000000000000000000000000000000000000000000000000000000000000000090911690635d8a776e90604401600060405180830381600087803b158015610fc257600080fd5b505af1158015610fd6573d6000803e3d6000fd5b50505050806001600160a01b0316836001600160a01b03167f40b9722744d0ba62d8b847077d65a712335b6769aa37fff7ad7852ec299222a78460405161101f91815260200190565b60405180910390a3505050565b60006040828403121561103e57600080fd5b6040516040810181811067ffffffffffffffff8211171561106f57634e487b7160e01b600052604160045260246000fd5b604052905080823561108081611317565b8152602083013561ffff8116811461109757600080fd5b6020919091015292915050565b6000602082840312156110b657600080fd5b81356110c181611317565b9392505050565b600080602083850312156110db57600080fd5b823567ffffffffffffffff808211156110f357600080fd5b818501915085601f83011261110757600080fd5b81358181111561111657600080fd5b8660208260061b850101111561112b57600080fd5b60209290920196919550909350505050565b60006020828403121561114f57600080fd5b81516110c181611317565b60006040828403121561116c57600080fd5b6110c1838361102c565b6000806060838503121561118957600080fd5b611193848461102c565b9150604083013560ff811681146111a957600080fd5b809150509250929050565b6000602082840312156111c657600080fd5b5035919050565b6000602082840312156111df57600080fd5b5051919050565b602080825282518282018190526000919060409081850190868401855b8281101561123d5761122d84835180516001600160a01b0316825260209081015161ffff16910152565b9284019290850190600101611203565b5091979650505050505050565b6000821982111561125d5761125d6112d5565b500190565b60008261127f57634e487b7160e01b600052601260045260246000fd5b500490565b600081600019048311821515161561129e5761129e6112d5565b500290565b6000828210156112b5576112b56112d5565b500390565b60006000198214156112ce576112ce6112d5565b5060010190565b634e487b7160e01b600052601160045260246000fd5b634e487b7160e01b600052603160045260246000fd5b634e487b7160e01b600052603260045260246000fd5b6001600160a01b038116811461132c57600080fd5b5056fea2646970667358221220149a617bdb05f2746aa572d5fb2aa100e391bf28504d4eca21908f7ed8771a6164736f6c63430008060033",
  "devdoc": {
    "author": "PoolTogether Inc Team",
    "events": {
      "Deployed(address,address)": {
        "params": {
          "owner": "Contract owner",
          "prizePool": "Linked PrizePool contract"
        }
      }
    },
    "kind": "dev",
    "methods": {
      "claimOwnership()": {
        "details": "This function is only callable by the `_pendingOwner`."
      },
      "constructor": {
        "params": {
          "_owner": "Owner address",
          "_prizePool": "PrizePool address"
        }
      },
      "distribute()": {
        "details": "Permissionless function to initialize distribution of interst",
        "returns": {
          "_0": "Prize captured from PrizePool"
        }
      },
      "getPrizePool()": {
        "returns": {
          "_0": "IPrizePool"
        }
      },
      "getPrizeSplit(uint256)": {
        "details": "Read PrizeSplitConfig struct from prizeSplits array.",
        "params": {
          "prizeSplitIndex": "Index position of PrizeSplitConfig"
        },
        "returns": {
          "_0": "PrizeSplitConfig Single prize split config"
        }
      },
      "getPrizeSplits()": {
        "details": "Read all PrizeSplitConfig structs stored in prizeSplits.",
        "returns": {
          "_0": "Array of PrizeSplitConfig structs"
        }
      },
      "pendingOwner()": {
        "returns": {
          "_0": "Current `_pendingOwner` address."
        }
      },
      "renounceOwnership()": {
        "details": "Leaves the contract without owner. It will not be possible to call `onlyOwner` functions anymore. Can only be called by the current owner. NOTE: Renouncing ownership will leave the contract without an owner, thereby removing any functionality that is only available to the owner."
      },
      "setPrizeSplit((address,uint16),uint8)": {
        "details": "Updates a prize split config by passing a new PrizeSplitConfig struct and current index position. Limited to contract owner.",
        "params": {
          "prizeSplitIndex": "Index position of PrizeSplitConfig to update",
          "prizeStrategySplit": "PrizeSplitConfig config struct"
        }
      },
      "setPrizeSplits((address,uint16)[])": {
        "details": "Set and remove prize split configs by passing a new PrizeSplitConfig structs array. Will remove existing PrizeSplitConfig(s) if passed array length is less than existing prizeSplits length.",
        "params": {
          "newPrizeSplits": "Array of PrizeSplitConfig structs"
        }
      },
      "transferOwnership(address)": {
        "params": {
          "_newOwner": "Address to transfer ownership to."
        }
      }
    },
    "title": "PoolTogether V4 PrizeSplitStrategy",
    "version": 1
  },
  "userdoc": {
    "events": {
      "Deployed(address,address)": {
        "notice": "Deployed Event"
      },
      "Distributed(uint256)": {
        "notice": "Emit when a strategy captures award amount from PrizePool."
      },
      "PrizeSplitAwarded(address,uint256,address)": {
        "notice": "Emit when an individual prize split is awarded."
      },
      "PrizeSplitRemoved(uint256)": {
        "notice": "Emitted when a PrizeSplitConfig config is removed."
      },
      "PrizeSplitSet(address,uint16,uint256)": {
        "notice": "Emitted when a PrizeSplitConfig config is added or updated."
      }
    },
    "kind": "user",
    "methods": {
      "claimOwnership()": {
        "notice": "Allows the `_pendingOwner` address to finalize the transfer."
      },
      "constructor": {
        "notice": "Deploy the PrizeSplitStrategy smart contract."
      },
      "distribute()": {
        "notice": "Capture the award balance and distribute to prize splits."
      },
      "getPrizePool()": {
        "notice": "Get PrizePool address"
      },
      "getPrizeSplit(uint256)": {
        "notice": "Read prize split config from active PrizeSplits."
      },
      "getPrizeSplits()": {
        "notice": "Read all prize splits configs."
      },
      "owner()": {
        "notice": "Returns the address of the current owner."
      },
      "pendingOwner()": {
        "notice": "Gets current `_pendingOwner`."
      },
      "renounceOwnership()": {
        "notice": "Renounce ownership of the contract."
      },
      "setPrizeSplit((address,uint16),uint8)": {
        "notice": "Updates a previously set prize split config."
      },
      "setPrizeSplits((address,uint16)[])": {
        "notice": "Set and remove prize split(s) configs. Only callable by owner."
      },
      "transferOwnership(address)": {
        "notice": "Allows current owner to set the `_pendingOwner` address."
      }
    },
    "notice": "Captures PrizePool interest for PrizeReserve and additional PrizeSplit recipients. The PrizeSplitStrategy will have at minimum a single PrizeSplit with 100% of the captured interest transfered to the PrizeReserve. Additional PrizeSplits can be added, depending on the deployers requirements (i.e. percentage to charity). In contrast to previous PoolTogether iterations, interest can be captured independent of a new Draw. Ideally (to save gas) interest is only captured when also distributing the captured prize(s) to applicable Prize Distributor(s).",
    "version": 1
  },
  "storageLayout": {
    "storage": [
      {
        "astId": 3936,
        "contract": "contracts/prize-strategy/PrizeSplitStrategy.sol:PrizeSplitStrategy",
        "label": "_owner",
        "offset": 0,
        "slot": "0",
        "type": "t_address"
      },
      {
        "astId": 3938,
        "contract": "contracts/prize-strategy/PrizeSplitStrategy.sol:PrizeSplitStrategy",
        "label": "_pendingOwner",
        "offset": 0,
        "slot": "1",
        "type": "t_address"
      },
      {
        "astId": 14116,
        "contract": "contracts/prize-strategy/PrizeSplitStrategy.sol:PrizeSplitStrategy",
        "label": "_prizeSplits",
        "offset": 0,
        "slot": "2",
        "type": "t_array(t_struct(PrizeSplitConfig)10767_storage)dyn_storage"
      }
    ],
    "types": {
      "t_address": {
        "encoding": "inplace",
        "label": "address",
        "numberOfBytes": "20"
      },
      "t_array(t_struct(PrizeSplitConfig)10767_storage)dyn_storage": {
        "base": "t_struct(PrizeSplitConfig)10767_storage",
        "encoding": "dynamic_array",
        "label": "struct IPrizeSplit.PrizeSplitConfig[]",
        "numberOfBytes": "32"
      },
      "t_struct(PrizeSplitConfig)10767_storage": {
        "encoding": "inplace",
        "label": "struct IPrizeSplit.PrizeSplitConfig",
        "members": [
          {
            "astId": 10764,
            "contract": "contracts/prize-strategy/PrizeSplitStrategy.sol:PrizeSplitStrategy",
            "label": "target",
            "offset": 0,
            "slot": "0",
            "type": "t_address"
          },
          {
            "astId": 10766,
            "contract": "contracts/prize-strategy/PrizeSplitStrategy.sol:PrizeSplitStrategy",
            "label": "percentage",
            "offset": 20,
            "slot": "0",
            "type": "t_uint16"
          }
        ],
        "numberOfBytes": "32"
      },
      "t_uint16": {
        "encoding": "inplace",
        "label": "uint16",
        "numberOfBytes": "2"
      }
    }
  }
}